{
  "_format": "hh-sol-artifact-1",
  "contractName": "Voting",
  "sourceName": "contracts/Voting.sol",
  "abi": [
    {
      "inputs": [],
      "stateMutability": "nonpayable",
      "type": "constructor"
    },
    {
      "inputs": [
        {
          "internalType": "address",
          "name": "owner",
          "type": "address"
        }
      ],
      "name": "OwnableInvalidOwner",
      "type": "error"
    },
    {
      "inputs": [
        {
          "internalType": "address",
          "name": "account",
          "type": "address"
        }
      ],
      "name": "OwnableUnauthorizedAccount",
      "type": "error"
    },
    {
      "inputs": [],
      "name": "ReentrancyGuardReentrantCall",
      "type": "error"
    },
    {
      "anonymous": false,
      "inputs": [
        {
          "indexed": true,
          "internalType": "address",
          "name": "previousOwner",
          "type": "address"
        },
        {
          "indexed": true,
          "internalType": "address",
          "name": "newOwner",
          "type": "address"
        }
      ],
      "name": "OwnershipTransferred",
      "type": "event"
    },
    {
      "anonymous": false,
      "inputs": [
        {
          "indexed": false,
          "internalType": "uint256",
          "name": "proposalId",
          "type": "uint256"
        }
      ],
      "name": "ProposalRegistered",
      "type": "event"
    },
    {
      "anonymous": false,
      "inputs": [
        {
          "indexed": false,
          "internalType": "address",
          "name": "voter",
          "type": "address"
        },
        {
          "indexed": false,
          "internalType": "uint256",
          "name": "proposalId",
          "type": "uint256"
        }
      ],
      "name": "Voted",
      "type": "event"
    },
    {
      "anonymous": false,
      "inputs": [
        {
          "indexed": false,
          "internalType": "address",
          "name": "voterAddress",
          "type": "address"
        }
      ],
      "name": "VoterRegistered",
      "type": "event"
    },
    {
      "anonymous": false,
      "inputs": [],
      "name": "VotesTallied",
      "type": "event"
    },
    {
      "anonymous": false,
      "inputs": [
        {
          "indexed": false,
          "internalType": "enum Voting.WorkflowStatus",
          "name": "previousStatus",
          "type": "uint8"
        },
        {
          "indexed": false,
          "internalType": "enum Voting.WorkflowStatus",
          "name": "newStatus",
          "type": "uint8"
        }
      ],
      "name": "WorkflowStatusChange",
      "type": "event"
    },
    {
      "inputs": [
        {
          "internalType": "string",
          "name": "_desc",
          "type": "string"
        }
      ],
      "name": "addProposal",
      "outputs": [],
      "stateMutability": "nonpayable",
      "type": "function"
    },
    {
      "inputs": [
        {
          "internalType": "address",
          "name": "_addr",
          "type": "address"
        }
      ],
      "name": "addVoter",
      "outputs": [],
      "stateMutability": "nonpayable",
      "type": "function"
    },
    {
      "inputs": [
        {
          "internalType": "address[]",
          "name": "_addrs",
          "type": "address[]"
        }
      ],
      "name": "addVoters",
      "outputs": [],
      "stateMutability": "nonpayable",
      "type": "function"
    },
    {
      "inputs": [],
      "name": "endProposalsRegistering",
      "outputs": [],
      "stateMutability": "nonpayable",
      "type": "function"
    },
    {
      "inputs": [],
      "name": "endVotingSession",
      "outputs": [],
      "stateMutability": "nonpayable",
      "type": "function"
    },
    {
      "inputs": [
        {
          "internalType": "uint256",
          "name": "_id",
          "type": "uint256"
        }
      ],
      "name": "getOneProposal",
      "outputs": [
        {
          "components": [
            {
              "internalType": "string",
              "name": "description",
              "type": "string"
            },
            {
              "internalType": "uint256",
              "name": "voteCount",
              "type": "uint256"
            }
          ],
          "internalType": "struct Voting.Proposal",
          "name": "",
          "type": "tuple"
        }
      ],
      "stateMutability": "view",
      "type": "function"
    },
    {
      "inputs": [],
      "name": "getProposals",
      "outputs": [
        {
          "components": [
            {
              "internalType": "string",
              "name": "description",
              "type": "string"
            },
            {
              "internalType": "uint256",
              "name": "voteCount",
              "type": "uint256"
            }
          ],
          "internalType": "struct Voting.Proposal[]",
          "name": "",
          "type": "tuple[]"
        }
      ],
      "stateMutability": "view",
      "type": "function"
    },
    {
      "inputs": [],
      "name": "getProposalsCount",
      "outputs": [
        {
          "internalType": "uint256",
          "name": "",
          "type": "uint256"
        }
      ],
      "stateMutability": "view",
      "type": "function"
    },
    {
      "inputs": [
        {
          "internalType": "address",
          "name": "_addr",
          "type": "address"
        }
      ],
      "name": "getVoter",
      "outputs": [
        {
          "components": [
            {
              "internalType": "bool",
              "name": "isRegistered",
              "type": "bool"
            },
            {
              "internalType": "bool",
              "name": "hasVoted",
              "type": "bool"
            },
            {
              "internalType": "uint256",
              "name": "votedProposalId",
              "type": "uint256"
            }
          ],
          "internalType": "struct Voting.Voter",
          "name": "",
          "type": "tuple"
        }
      ],
      "stateMutability": "view",
      "type": "function"
    },
    {
      "inputs": [],
      "name": "getVotersCount",
      "outputs": [
        {
          "internalType": "uint256",
          "name": "",
          "type": "uint256"
        }
      ],
      "stateMutability": "view",
      "type": "function"
    },
    {
      "inputs": [],
      "name": "getVotersList",
      "outputs": [
        {
          "internalType": "address[]",
          "name": "",
          "type": "address[]"
        }
      ],
      "stateMutability": "view",
      "type": "function"
    },
    {
      "inputs": [],
      "name": "getWinner",
      "outputs": [
        {
          "components": [
            {
              "internalType": "string",
              "name": "description",
              "type": "string"
            },
            {
              "internalType": "uint256",
              "name": "voteCount",
              "type": "uint256"
            }
          ],
          "internalType": "struct Voting.Proposal",
          "name": "winnerProposal",
          "type": "tuple"
        }
      ],
      "stateMutability": "view",
      "type": "function"
    },
    {
      "inputs": [],
      "name": "owner",
      "outputs": [
        {
          "internalType": "address",
          "name": "",
          "type": "address"
        }
      ],
      "stateMutability": "view",
      "type": "function"
    },
    {
      "inputs": [
        {
          "internalType": "uint256",
          "name": "",
          "type": "uint256"
        }
      ],
      "name": "proposals",
      "outputs": [
        {
          "internalType": "string",
          "name": "description",
          "type": "string"
        },
        {
          "internalType": "uint256",
          "name": "voteCount",
          "type": "uint256"
        }
      ],
      "stateMutability": "view",
      "type": "function"
    },
    {
      "inputs": [],
      "name": "renounceOwnership",
      "outputs": [],
      "stateMutability": "nonpayable",
      "type": "function"
    },
    {
      "inputs": [
        {
          "internalType": "uint256",
          "name": "_id",
          "type": "uint256"
        }
      ],
      "name": "setVote",
      "outputs": [],
      "stateMutability": "nonpayable",
      "type": "function"
    },
    {
      "inputs": [],
      "name": "startProposalsRegistering",
      "outputs": [],
      "stateMutability": "nonpayable",
      "type": "function"
    },
    {
      "inputs": [],
      "name": "startVotingSession",
      "outputs": [],
      "stateMutability": "nonpayable",
      "type": "function"
    },
    {
      "inputs": [],
      "name": "tallyVotes",
      "outputs": [],
      "stateMutability": "nonpayable",
      "type": "function"
    },
    {
      "inputs": [
        {
          "internalType": "address",
          "name": "newOwner",
          "type": "address"
        }
      ],
      "name": "transferOwnership",
      "outputs": [],
      "stateMutability": "nonpayable",
      "type": "function"
    },
    {
      "inputs": [
        {
          "internalType": "address",
          "name": "",
          "type": "address"
        }
      ],
      "name": "voters",
      "outputs": [
        {
          "internalType": "bool",
          "name": "isRegistered",
          "type": "bool"
        },
        {
          "internalType": "bool",
          "name": "hasVoted",
          "type": "bool"
        },
        {
          "internalType": "uint256",
          "name": "votedProposalId",
          "type": "uint256"
        }
      ],
      "stateMutability": "view",
      "type": "function"
    },
    {
      "inputs": [
        {
          "internalType": "uint256",
          "name": "",
          "type": "uint256"
        }
      ],
      "name": "votersList",
      "outputs": [
        {
          "internalType": "address",
          "name": "",
          "type": "address"
        }
      ],
      "stateMutability": "view",
      "type": "function"
    },
    {
      "inputs": [],
      "name": "winningProposalID",
      "outputs": [
        {
          "internalType": "uint256",
          "name": "",
          "type": "uint256"
        }
      ],
      "stateMutability": "view",
      "type": "function"
    },
    {
      "inputs": [],
      "name": "workflowStatus",
      "outputs": [
        {
          "internalType": "enum Voting.WorkflowStatus",
          "name": "",
          "type": "uint8"
        }
      ],
      "stateMutability": "view",
      "type": "function"
    }
  ],
  "bytecode": "0x6080604052348015600f57600080fd5b503380603557604051631e4fbdf760e01b81526000600482015260240160405180910390fd5b603c81604f565b50600180556002805460ff19169055609f565b600080546001600160a01b038381166001600160a01b0319831681178455604051919092169283917f8be0079c531659141344cd1fd0a4f28419497f9722a3daafe3b4186f6b6457e09190a35050565b611a0a806100ae6000396000f3fe608060405234801561001057600080fd5b50600436106101585760003560e01c8063a2788cce116100c3578063c7038a4e1161007c578063c7038a4e146102f6578063c88af42f146102fe578063d4f50f9814610306578063ee74c6781461039b578063f2fde38b146103a3578063f4ab9adf146103b657600080fd5b8063a2788cce14610264578063a3ec138d14610277578063a7bfab16146102c8578063bc86f385146102d0578063bdc01431146102e5578063c0f2a777146102ee57600080fd5b806372ce73ab1161011557806372ce73ab146101d45780638203373a146101ff5780638da5cb5b146102125780638e7ea5b21461022357806398e527d314610238578063a1edffa21461024a57600080fd5b8063013cf08b1461015d578063230796ae146101875780632fdae3c51461019c578063378a2178146101af57806362564c48146101b7578063715018a6146101cc575b600080fd5b61017061016b36600461146c565b6103c9565b60405161017e9291906114cb565b60405180910390f35b61019a61019536600461146c565b610485565b005b61019a6101aa3660046114ed565b61067c565b61019a610868565b6101bf61098d565b60405161017e919061158a565b61019a610a88565b6101e76101e236600461146c565b610a9a565b6040516001600160a01b03909116815260200161017e565b61019a61020d3660046115ef565b610ac4565b6000546001600160a01b03166101e7565b61022b610cb8565b60405161017e9190611656565b6004545b60405190815260200161017e565b6002546102579060ff1681565b60405161017e91906116a8565b61022b61027236600461146c565b610e15565b6102ab6102853660046116bc565b6003602052600090815260409020805460019091015460ff808316926101009004169083565b60408051931515845291151560208401529082015260600161017e565b61019a610f44565b6102d8610fbc565b60405161017e91906116e5565b61023c60055481565b60065461023c565b61019a61101e565b61019a6110db565b6103756103143660046116bc565b6040805160608082018352600080835260208084018290529284018190526001600160a01b03949094168452600382529282902082519384018352805460ff8082161515865261010090910416151591840191909152600101549082015290565b60408051825115158152602080840151151590820152918101519082015260600161017e565b61019a611194565b61019a6103b13660046116bc565b6111fe565b61019a6103c43660046116bc565b611239565b600481815481106103d957600080fd5b90600052602060002090600202016000915090508060000180546103fc90611731565b80601f016020809104026020016040519081016040528092919081815260200182805461042890611731565b80156104755780601f1061044a57610100808354040283529160200191610475565b820191906000526020600020905b81548152906001019060200180831161045857829003601f168201915b5050505050908060010154905082565b3360009081526003602052604090205460ff166104bd5760405162461bcd60e51b81526004016104b49061176b565b60405180910390fd5b600360025460ff1660058111156104d6576104d6611670565b1461052f5760405162461bcd60e51b815260206004820152602360248201527f4c612073657373696f6e20646520766f7465206e27657374207061732061637460448201526269766560e81b60648201526084016104b4565b6105376113c5565b33600090815260036020526040902054610100900460ff16156105925760405162461bcd60e51b8152602060048201526013602482015272566f7573206176657a2064656a6120766f746560681b60448201526064016104b4565b60045481106105dd5760405162461bcd60e51b815260206004820152601760248201527650726f706f736974696f6e20696e6578697374616e746560481b60448201526064016104b4565b33600090815260036020526040902060018101829055805461ff0019166101001790556004805482908110610614576106146117b1565b600091825260208220600160029092020101805491610632836117dd565b909155505060408051338152602081018390527f4d99b957a2bc29a30ebd96a7be8e68fe50a3c701db28a91436490b7d53870ca4910160405180910390a161067960018055565b50565b3360009081526003602052604090205460ff166106ab5760405162461bcd60e51b81526004016104b49061176b565b600160025460ff1660058111156106c4576106c4611670565b1461071f5760405162461bcd60e51b815260206004820152602560248201527f4c65732070726f706f736974696f6e73206e6520736f6e7420706173206f7576604482015264657274657360d81b60648201526084016104b4565b8061075f5760405162461bcd60e51b815260206004820152601060248201526f4465736372697074696f6e207669646560801b60448201526064016104b4565b60c88111156107b05760405162461bcd60e51b815260206004820152601760248201527f4465736372697074696f6e2074726f70206c6f6e67756500000000000000000060448201526064016104b4565b6040805160606020601f8501819004028201810183529181018381526004928291908690869081908501838280828437600092018290525093855250505060209182018190528354600181018555938152208151919260020201908190610817908261185a565b50602091909101516001918201556004547f92e393e9b54e2f801d3ea4beb0c5e71a21cc34a5d34b77d0fb8a3aa1650dc18f9161085391611919565b60405190815260200160405180910390a15050565b6108706113ef565b6108786113c5565b600460025460ff16600581111561089157610891611670565b146108ae5760405162461bcd60e51b81526004016104b49061192c565b6000805b60045481101561091f5781600482815481106108d0576108d06117b1565b906000526020600020906002020160010154111561091757600481815481106108fb576108fb6117b1565b9060005260206000209060020201600101549150806005819055505b6001016108b2565b506002805460ff191660059081179091556040516000805160206119b5833981519152916109509160049190611954565b60405180910390a16040517f0e5e95ff8725ab3e7a4b6b59998a4c344c2aa8d1485f5e60cb7f337768e6134790600090a15061098b60018055565b565b60606004805480602002602001604051908101604052809291908181526020016000905b82821015610a7f57838290600052602060002090600202016040518060400160405290816000820180546109e490611731565b80601f0160208091040260200160405190810160405280929190818152602001828054610a1090611731565b8015610a5d5780601f10610a3257610100808354040283529160200191610a5d565b820191906000526020600020905b815481529060010190602001808311610a4057829003601f168201915b50505050508152602001600182015481525050815260200190600101906109b1565b50505050905090565b610a906113ef565b61098b600061141c565b60068181548110610aaa57600080fd5b6000918252602090912001546001600160a01b0316905081565b610acc6113ef565b600060025460ff166005811115610ae557610ae5611670565b14610b025760405162461bcd60e51b81526004016104b49061196f565b60005b81811015610cb35760036000848484818110610b2357610b236117b1565b9050602002016020810190610b3891906116bc565b6001600160a01b0316815260208101919091526040016000205460ff16158015610b9257506000838383818110610b7157610b716117b1565b9050602002016020810190610b8691906116bc565b6001600160a01b031614155b15610cab57600160036000858585818110610baf57610baf6117b1565b9050602002016020810190610bc491906116bc565b6001600160a01b031681526020810191909152604001600020805460ff19169115159190911790556006838383818110610c0057610c006117b1565b9050602002016020810190610c1591906116bc565b81546001810183556000928352602090922090910180546001600160a01b0319166001600160a01b039092169190911790557fb6be2187d059cc2a55fe29e0e503b566e1e0f8c8780096e185429350acffd3dd838383818110610c7a57610c7a6117b1565b9050602002016020810190610c8f91906116bc565b6040516001600160a01b03909116815260200160405180910390a15b600101610b05565b505050565b604080518082019091526060815260006020820152600560025460ff166005811115610ce657610ce6611670565b14610d465760405162461bcd60e51b815260206004820152602a60248201527f4c657320766f746573206e6520736f6e742070617320656e636f726520636f6d60448201526970746162696c6973657360b01b60648201526084016104b4565b600460055481548110610d5b57610d5b6117b1565b9060005260206000209060020201604051806040016040529081600082018054610d8490611731565b80601f0160208091040260200160405190810160405280929190818152602001828054610db090611731565b8015610dfd5780601f10610dd257610100808354040283529160200191610dfd565b820191906000526020600020905b815481529060010190602001808311610de057829003601f168201915b50505050508152602001600182015481525050905090565b6040805180820190915260608152600060208201526004548210610e755760405162461bcd60e51b815260206004820152601760248201527650726f706f736974696f6e20696e6578697374616e746560481b60448201526064016104b4565b60048281548110610e8857610e886117b1565b9060005260206000209060020201604051806040016040529081600082018054610eb190611731565b80601f0160208091040260200160405190810160405280929190818152602001828054610edd90611731565b8015610f2a5780601f10610eff57610100808354040283529160200191610f2a565b820191906000526020600020905b815481529060010190602001808311610f0d57829003601f168201915b505050505081526020016001820154815250509050919050565b610f4c6113ef565b600360025460ff166005811115610f6557610f65611670565b14610f825760405162461bcd60e51b81526004016104b49061192c565b6002805460ff191660049081179091556040516000805160206119b583398151915291610fb29160039190611954565b60405180910390a1565b6060600680548060200260200160405190810160405280929190818152602001828054801561101457602002820191906000526020600020905b81546001600160a01b03168152600190910190602001808311610ff6575b5050505050905090565b6110266113ef565b600060025460ff16600581111561103f5761103f611670565b1461105c5760405162461bcd60e51b81526004016104b49061192c565b6006546110ab5760405162461bcd60e51b815260206004820152601960248201527f417563756e20656c65637465757220656e72656769737472650000000000000060448201526064016104b4565b6002805460ff191660019081179091556040516000805160206119b583398151915291610fb29160009190611954565b6110e36113ef565b600160025460ff1660058111156110fc576110fc611670565b146111195760405162461bcd60e51b81526004016104b49061192c565b6004546111685760405162461bcd60e51b815260206004820152601e60248201527f417563756e652070726f706f736974696f6e20656e726567697374726565000060448201526064016104b4565b6002805460ff1916811781556040516000805160206119b583398151915291610fb29160019190611954565b61119c6113ef565b6002805460ff1660058111156111b4576111b4611670565b146111d15760405162461bcd60e51b81526004016104b49061192c565b6002805460ff1916600390811782556040516000805160206119b583398151915292610fb2929091611954565b6112066113ef565b6001600160a01b03811661123057604051631e4fbdf760e01b8152600060048201526024016104b4565b6106798161141c565b6112416113ef565b600060025460ff16600581111561125a5761125a611670565b146112775760405162461bcd60e51b81526004016104b49061196f565b6001600160a01b03811660009081526003602052604090205460ff16156112e05760405162461bcd60e51b815260206004820152601860248201527f456c6563746575722064656a6120656e7265676973747265000000000000000060448201526064016104b4565b6001600160a01b0381166113295760405162461bcd60e51b815260206004820152601060248201526f4164726573736520696e76616c69646560801b60448201526064016104b4565b6001600160a01b0381166000818152600360209081526040808320805460ff191660019081179091556006805491820181559093527ff652222313e28459528d920b65115c16c04f3efc82aaedc97be59f3f377c0d3f90920180546001600160a01b0319168417905590519182527fb6be2187d059cc2a55fe29e0e503b566e1e0f8c8780096e185429350acffd3dd910160405180910390a150565b6002600154036113e857604051633ee5aeb560e01b815260040160405180910390fd5b6002600155565b6000546001600160a01b0316331461098b5760405163118cdaa760e01b81523360048201526024016104b4565b600080546001600160a01b038381166001600160a01b0319831681178455604051919092169283917f8be0079c531659141344cd1fd0a4f28419497f9722a3daafe3b4186f6b6457e09190a35050565b60006020828403121561147e57600080fd5b5035919050565b6000815180845260005b818110156114ab5760208185018101518683018201520161148f565b506000602082860101526020601f19601f83011685010191505092915050565b6040815260006114de6040830185611485565b90508260208301529392505050565b6000806020838503121561150057600080fd5b823567ffffffffffffffff81111561151757600080fd5b8301601f8101851361152857600080fd5b803567ffffffffffffffff81111561153f57600080fd5b85602082840101111561155157600080fd5b6020919091019590945092505050565b60008151604084526115766040850182611485565b602093840151949093019390935250919050565b6000602082016020835280845180835260408501915060408160051b86010192506020860160005b828110156115e357603f198786030184526115ce858351611561565b945060209384019391909101906001016115b2565b50929695505050505050565b6000806020838503121561160257600080fd5b823567ffffffffffffffff81111561161957600080fd5b8301601f8101851361162a57600080fd5b803567ffffffffffffffff81111561164157600080fd5b8560208260051b840101111561155157600080fd5b6020815260006116696020830184611561565b9392505050565b634e487b7160e01b600052602160045260246000fd5b600681106116a457634e487b7160e01b600052602160045260246000fd5b9052565b602081016116b68284611686565b92915050565b6000602082840312156116ce57600080fd5b81356001600160a01b038116811461166957600080fd5b602080825282518282018190526000918401906040840190835b818110156117265783516001600160a01b03168352602093840193909201916001016116ff565b509095945050505050565b600181811c9082168061174557607f821691505b60208210810361176557634e487b7160e01b600052602260045260246000fd5b50919050565b60208082526026908201527f566f7573206e27657465732070617320756e20656c65637465757220656e726560408201526567697374726560d01b606082015260800190565b634e487b7160e01b600052603260045260246000fd5b634e487b7160e01b600052601160045260246000fd5b6000600182016117ef576117ef6117c7565b5060010190565b634e487b7160e01b600052604160045260246000fd5b601f821115610cb357806000526020600020601f840160051c810160208510156118335750805b601f840160051c820191505b81811015611853576000815560010161183f565b5050505050565b815167ffffffffffffffff811115611874576118746117f6565b611888816118828454611731565b8461180c565b6020601f8211600181146118bc57600083156118a45750848201515b600019600385901b1c1916600184901b178455611853565b600084815260208120601f198516915b828110156118ec57878501518255602094850194600190920191016118cc565b508482101561190a5786840151600019600387901b60f8161c191681555b50505050600190811b01905550565b818103818111156116b6576116b66117c7565b6020808252600e908201526d115d185d081a5b98dbdc9c9958dd60921b604082015260600190565b604081016119628285611686565b6116696020830184611686565b60208082526025908201527f4c657320696e736372697074696f6e73206e6520736f6e7420706173206f7576604082015264657274657360d81b60608201526080019056fe0a97a4ee45751e2abf3e4fc8946939630b11b371ea8ae39ccdc3056e98f5cc3fa264697066735822122062f83060e13e3439ba2af570882c7f8a315768397caed664bd4ed5bf49e08a0964736f6c634300081e0033",
  "linkReferences": {},
  "deployedLinkReferences": {}
}